:100000000C942A000C9447000C9447000C94470071
:100010000C9447000C9447000C9447000C94470044
:100020000C9447000C9447000C9447000C94470034
:100030000C9447000C9447000C9447000C94470024
:100040000C9447000C9447000C9447000C94470014
:100050000C94470011241FBECFE5D8E0DEBFCDBF12
:1000600011E0A0E6B0E0E0E2FCE302C005900D92F2
:10007000A63AB107D9F711E0A6EAB1E001C01D9296
:10008000AF3BB107E1F70E945D140C940E1E0C9477
:100090000000EF92FF920F931F937B018C0120E0F1
:1000A00030E040E05FE40E94250488238CF0C80122
:1000B000B70120E030E040E05FE40E94C1010E940F
:1000C000E3049B01AC01205030404040504806C042
:1000D000C801B7010E94E3049B01AC01B901CA0148
:1000E0001F910F91FF90EF900895A0E0B0E0EBE733
:1000F000F0E00C94D71DDC012B01FA019C919230A9
:1001000008F439C1EB018881823008F433C194309E
:1001100069F4843009F02FC111969C91119789815F
:10012000981709F428C1A5E8B0E025C1843009F486
:1001300021C18230A9F4923009F01DC19A01AD01AC
:1001400088E0EA010990AE01E90109929E0181501F
:10015000C1F7E201898111969C918923818308C1AD
:10016000923009F407C112962D903C901397EB0141
:100170008A819B811496AD90BD90CD90DC901797AD
:10018000EC80FD800E811F819101281B390BB90184
:1001900037FF04C066277727621B730B6032710537
:1001A0000CF061C0121613066CF537014801062EDB
:1001B00004C096948794779467940A94D2F721E0C8
:1001C00030E040E050E004C0220F331F441F551FB1
:1001D0006A95D2F721503040404050402E213F21B7
:1001E00040235123211531054105510521F021E01E
:1001F00030E040E050E079018A01E628F72808293C
:1002000019293CC0232BD1F1260E371E350146019A
:10021000062E04C096948794779467940A94D2F734
:1002200021E030E040E050E004C0220F331F441FC3
:10023000551F6A95D2F721503040404050402A2146
:100240003B214C215D21211531054105510521F04E
:1002500021E030E040E050E059016A01A628B728CB
:10026000C828D9280BC0821593052CF01C01AA249C
:10027000BB24650103C0EE24FF24870111969C91E5
:10028000D20111968C91981709F445C0992339F041
:10029000A80197012A193B094C095D0906C0A6016E
:1002A00095012E193F09400B510B57FD08C01182D3
:1002B0003382228224833583468357831DC081E0A5
:1002C00081833382228288279927DC01821B930B4A
:1002D000A40BB50B84839583A683B7830DC0220F2F
:1002E000331F441F551F24833583468357838281E0
:1002F000938101979383828324813581468157813D
:10030000DA01C9010197A109B1098F5F9F4FAF4F72
:10031000BF4328F30BC0918333822282EA0CFB1C7B
:100320000C1D1D1DE482F5820683178383E0808304
:10033000248135814681578157FF1AC0C901AA27F8
:1003400097FDA095BA2F81709070A070B0705695EF
:10035000479537952795822B932BA42BB52B848318
:100360009583A683B7838281938101969383828349
:10037000DF0101C0D201CD01CDB7DEB7E2E10C94BF
:10038000F31DA0E2B0E0E7ECF1E00C94E31D69831B
:100390007A838B839C832D833E834F835887E9E048
:1003A000EE2EF12CEC0EFD1ECE010196B7010E943F
:1003B000D4068E010F5E1F4FCE010596B8010E9434
:1003C000D4068A8991E089278A8BC701B801AE01DA
:1003D000475E5F4F0E9475000E94FF05A096E6E011
:1003E0000C94FF1DA0E2B0E0E8EFF1E00C94E31DF7
:1003F00069837A838B839C832D833E834F835887C5
:10040000F9E0EF2EF12CEC0EFD1ECE010196B701A6
:100410000E94D4068E010F5E1F4FCE010596B801D3
:100420000E94D406C701B801AE01475E5F4F0E942B
:1004300075000E94FF05A096E6E00C94FF1DA0E267
:10044000B0E0E5E2F2E00C94D71D69837A838B83F8
:100450009C832D833E834F835887CE010196BE0136
:10046000675F7F4F0E94D406CE010596BE016F5E86
:100470007F4F0E94D4069985923088F08989823016
:10048000C8F0943019F4823051F404C0843029F457
:10049000923081F485E890E0C6C0923049F420E0C3
:1004A0009A858A89981321E02A87CE010996BBC0D4
:1004B000823049F420E09A858A89981321E02A8BBA
:1004C000CE014196B0C02D843E844F8458886D88FB
:1004D0007E888F88988CEE24FF248701AA24BB2471
:1004E000650140E050E060E070E0E0E0F0E0C10174
:1004F00081709070892BE9F0E60CF71C081D191D1E
:100500009A01AB012A0D3B1D4C1D5D1D80E090E062
:10051000A0E0B0E0E614F7040805190520F481E036
:1005200090E0A0E0B0E0BA01A901480F591F6A1F8E
:100530007B1FAA0CBB1CCC1CDD1C97FE08C081E0F5
:1005400090E0A0E0B0E0A82AB92ACA2ADB2A3196B6
:10055000E032F10549F0660C771C881C991C569412
:10056000479437942794C3CFFA85EA892B893C892D
:100570008B859C85280F391F2E5F3F4F17C0CA01FE
:1005800081709070892B61F016950795F794E79428
:1005900080E090E0A0E0B0E8E82AF92A0A2B1B2BC3
:1005A00076956795579547952F5F3F4F77FDE7CF36
:1005B0000CC0440F551F661F771F17FD4160EE0CDE
:1005C000FF1C001F111F21503040403090E05907A0
:1005D00090E0690790E4790760F32B8F3C8FDB0193
:1005E000CA018F779070A070B07080349105A1051A
:1005F000B10561F447FD0AC0E114F10401051105DC
:1006000029F0405C5F4F6F4F7F4F40781A8EFE1786
:1006100011F081E08A8F4D8F5E8F6F8F78A383E01A
:10062000898FCE0149960E94FF05A096E2E10C94C5
:10063000F31DA8E1B0E0EFE1F3E00C94DF1D698366
:100640007A838B839C832D833E834F835887B9E0C5
:10065000EB2EF12CEC0EFD1ECE010196B7010E948F
:10066000D4068E010F5E1F4FCE010596B8010E9481
:10067000D4062985223008F47EC03989323010F43E
:10068000B8017CC08A859A8989278A87243011F02D
:10069000223031F4231709F06EC065E870E06EC0B7
:1006A000343039F41D861E861F86188A1C861B86E8
:1006B00004C0323021F484E08987B7015FC02B8504
:1006C0003C858B899C89281B390B3C872B87ED84C3
:1006D000FE840F851889AD88BE88CF88D88CEA142F
:1006E000FB040C051D0540F4EE0CFF1C001F111F40
:1006F000215030403C872B8720E030E040E050E044
:1007000080E090E0A0E0B0E460E070E0EA14FB0478
:100710000C051D0540F0282B392B4A2B5B2BEA18C2
:10072000FB080C091D09B695A79597958795EE0CC2
:10073000FF1C001F111F6F5F7F4F6F31710531F775
:10074000DA01C9018F779070A070B0708034910584
:10075000A105B10561F427FD0AC0E114F10401050A
:10076000110529F0205C3F4F4F4F5F4F20782D87B8
:100770003E874F87588BBE01675F7F4FCB010E943A
:10078000FF056896EAE00C94FB1DA8E1B0E0EBECF5
:10079000F3E00C94E31D69837A838B839C832D8320
:1007A0003E834F83588789E0E82EF12CEC0EFD1E26
:1007B000CE010196B7010E94D4068E010F5E1F4F35
:1007C000CE010596B8010E94D4068985823040F09A
:1007D0008989823028F0C701B8010E944C0701C006
:1007E00081E06896E6E00C94FF1DA8E1B0E0EBEF35
:1007F000F3E00C94E31D69837A838B839C832D83C0
:100800003E834F83588789E0E82EF12CEC0EFD1EC5
:10081000CE010196B7010E94D4068E010F5E1F4FD4
:10082000CE010596B8010E94D4068985823040F039
:100830008989823028F0C701B8010E944C0701C0A5
:100840008FEF6896E6E00C94FF1DA8E1B0E0EBE2C4
:10085000F4E00C94E31D69837A838B839C832D835E
:100860003E834F83588789E0E82EF12CEC0EFD1E65
:10087000CE010196B7010E94D4068E010F5E1F4F74
:10088000CE010596B8010E94D4068985823040F0D9
:100890008989823028F0C701B8010E944C0701C045
:1008A0008FEF6896E6E00C94FF1DA8E1B0E0EBE561
:1008B000F4E00C94E31D69837A838B839C832D83FE
:1008C0003E834F83588789E0E82EF12CEC0EFD1E05
:1008D000CE010196B7010E94D4068E010F5E1F4F14
:1008E000CE010596B8010E94D4068985823040F079
:1008F0008989823028F0C701B8010E944C0701C0E5
:1009000081E06896E6E00C94FF1DA8E0B0E0EBE81B
:10091000F4E00C94E01D9B01AC0183E08983DA01D3
:10092000C9018827B7FD83959927AA27BB27B82E29
:10093000211531054105510519F482E089833AC03A
:100940008823A9F0203080E0380780E0480780E85D
:10095000580729F460E070E080E09FEC30C0EE249E
:10096000FF248701E21AF30A040B150B02C0790178
:100970008A018EE1C82ED12CDC82CB82ED82FE82F0
:100980000F831887C801B7010E94B0050197181698
:10099000190684F4082E04C0EE0CFF1C001F111F62
:1009A0000A94D2F7ED82FE820F831887C81AD90AFB
:1009B000DC82CB82BA82CE0101960E94FF05289686
:1009C000E9E00C94FC1DACE0B0E0E9EEF4E00C943E
:1009D000E71D69837A838B839C83CE010196BE01D8
:1009E0006B5F7F4F0E94D4068D81823061F182302F
:1009F00050F1843021F48E81882351F12EC02F8153
:100A0000388537FD20C06E812F3131051CF06623FB
:100A1000F9F023C08EE190E0821B930B29853A8583
:100A20004B855C8504C056954795379527958A95E3
:100A3000D2F76623B1F050954095309521953F4F00
:100A40004F4F5F4F0EC020E030E040E050E009C063
:100A50002FEF3FEF4FEF5FE704C020E030E040E0D2
:100A600050E8B901CA012C96E2E00C94031EA8E0FC
:100A7000B0E0EDE3F5E00C94DF1D7B018C01611526
:100A800071058105910519F482E0898360C083E0D6
:100A900089838EE1C82ED12CDC82CB82ED82FE824E
:100AA0000F831887C801B7010E94B005FC01319778
:100AB000F7FF3BC0222733272E1B3F0B570168014E
:100AC000022E04C0D694C794B794A7940A94D2F780
:100AD00040E050E060E070E081E090E0A0E0B0E055
:100AE00004C0880F991FAA1FBB1F2A95D2F7019730
:100AF000A109B1098E219F21A023B1230097A1054F
:100B0000B10521F041E050E060E070E04A295B2946
:100B10006C297D294D835E836F8378878EE190E019
:100B20008E1B9F0B9C838B8312C0309781F00E2EFF
:100B300004C0EE0CFF1C001F111F0A94D2F7ED82B7
:100B4000FE820F831887CE1ADF0ADC82CB821A82DC
:100B5000CE0101960E94FF052896EAE00C94FB1D49
:100B6000EF92FF920F931F937B018C0180E0E816B8
:100B700080E0F80681E0080780E0180788F48FEF2E
:100B8000E816F1040105110531F028F088E090E045
:100B9000A0E0B0E017C080E090E0A0E0B0E012C0BC
:100BA00080E0E81680E0F80680E0080781E018079A
:100BB00028F088E190E0A0E0B0E004C080E190E09F
:100BC000A0E0B0E020E230E040E050E0281B390B2C
:100BD0004A0B5B0B04C016950795F794E7948A952A
:100BE000D2F7F701E357FF4F8081281B31094109F4
:100BF0005109C9011F910F91FF90EF900895DF9265
:100C0000EF92FF920F931F93FC01E480F580068121
:100C10001781D1808081823048F480E090E0A0E1AB
:100C2000B0E0E82AF92A0A2B1B2BA5C0843009F46E
:100C30009FC0823021F4EE24FF24870105C0E11417
:100C4000F1040105110519F4E0E0F0E096C06281BD
:100C500073819FEF623879070CF05BC022E83FEFA9
:100C6000261B370B2A3131052CF020E030E040E024
:100C700050E02AC0B801A701022E04C076956795FE
:100C8000579547950A94D2F781E090E0A0E0B0E054
:100C900004C0880F991FAA1FBB1F2A95D2F701977E
:100CA000A109B1098E219F21A023B1230097A1059D
:100CB000B10521F081E090E0A0E0B0E09A01AB0145
:100CC000282B392B4A2B5B2BDA01C9018F779070C7
:100CD000A070B07080349105A105B10539F427FFEB
:100CE00009C0205C3F4F4F4F5F4F04C0215C3F4F16
:100CF0004F4F5F4FE0E0F0E02030A0E03A07A0E087
:100D00004A07A0E45A0710F0E1E0F0E079018A0117
:100D100027C06038710564F5FB01E158FF4FD80129
:100D2000C7018F779070A070B07080349105A105D5
:100D3000B10539F4E7FE0DC080E490E0A0E0B0E03A
:100D400004C08FE390E0A0E0B0E0E80EF91E0A1FB7
:100D50001B1F17FF05C016950795F794E79431966A
:100D600087E016950795F794E7948A95D1F705C023
:100D7000EE24FF248701EFEFF0E06E2F67956627E2
:100D80006795902F9F77D794DD24D7948E2F8695E3
:100D9000492F462B582F5D29B701CA011F910F918A
:100DA000FF90EF90DF900895FC01DB0140815181BD
:100DB0002281622F6F7770E0221F2227221F9381EA
:100DC000892F880F822B282F30E0991F9927991F90
:100DD00011969C93119721153105A9F541155105DF
:100DE0006105710511F482E037C082E89FEF139628
:100DF0009C938E9312979A01AB0167E0220F331FE9
:100E0000441F551F6A95D1F783E08C930DC0220FC4
:100E1000331F441F551F12968D919C911397019774
:100E200013969C938E931297203080E0380780E0D1
:100E3000480780E4580758F314962D933D934D933B
:100E40005C93179708952F3F310579F441155105AB
:100E50006105710519F484E08C93089564FF03C063
:100E600081E08C9312C01C9210C02F573040139613
:100E70003C932E93129783E08C9387E0440F551F89
:100E8000661F771F8A95D1F7706414964D935D9312
:100E90006D937C93179708951F93DC01FB019C9140
:100EA000923008F447C08081823008F443C0943007
:100EB00051F411961C91843099F58181682F70E06E
:100EC000611B71093FC0843021F0923031F48230CF
:100ED000B9F18181882389F12DC011961C91119758
:100EE0008230F1F081811817D9F412962D913C913E
:100EF0001397828193818217930794F028173907FB
:100F0000BCF014968D919D910D90BC91A02D2481E3
:100F1000358146815781281739074A075B0718F43E
:100F2000112341F00AC082179307A407B50740F4C4
:100F3000112319F061E070E005C06FEF7FEF02C090
:100F400060E070E0CB011F910895DF93CF93CDB7A0
:100F5000DEB727970FB6F894DEBF0FBECDBF8983EB
:100F60006A834B838B81813009F06FC08981282F80
:100F700030E03F832E838E819F818130910549F13E
:100F80002E813F81223031052CF48E819F81009784
:100F900061F0D2C02E813F812230310571F18E8106
:100FA0009F8183309105E9F1C7C0AAE3B0E0EAE38D
:100FB000F0E08081482F8A81282F30E081E090E0A6
:100FC000022E02C0880F991F0A94E2F7842B8C939B
:100FD000B3C0A7E3B0E0E7E3F0E08081482F8A8167
:100FE000282F30E081E090E0022E02C0880F991F88
:100FF0000A94E2F7842B8C939FC0A4E3B0E0E4E36F
:10100000F0E08081482F8A81282F30E081E090E055
:10101000022E02C0880F991F0A94E2F7842B8C934A
:101020008BC0A1E3B0E0E1E3F0E08081482F8A814A
:10103000282F30E081E090E0022E02C0880F991F37
:101040000A94E2F7842B8C9377C08B81882309F074
:1010500073C08981282F30E03D832C838C819D8152
:101060008130910559F12C813D81223031052CF4DC
:101070008C819D81009769F05FC02C813D81223079
:10108000310589F18C819D818330910509F440C03F
:1010900053C0AAE3B0E0EAE3F0E08081482F8A8100
:1010A000282F30E081E090E0022E02C0880F991FC7
:1010B0000A94E2F7809584238C933EC0A7E3B0E0C6
:1010C000E7E3F0E08081482F8A81282F30E081E03B
:1010D00090E0022E02C0880F991F0A94E2F78095D3
:1010E00084238C9329C0A4E3B0E0E4E3F0E08081A2
:1010F000482F8A81282F30E081E090E0022E02C044
:10110000880F991F0A94E2F7809584238C9314C06A
:10111000A1E3B0E0E1E3F0E08081482F8A81282F4D
:1011200030E081E090E0022E02C0880F991F0A94FF
:10113000E2F7809584238C9327960FB6F894DEBF50
:101140000FBECDBFCF91DF910895DF93CF93CDB781
:10115000DEB727970FB6F894DEBF0FBECDBF8983E9
:101160006A834B838B81813009F06FC08981282F7E
:1011700030E03F832E838E819F818130910549F13C
:101180002E813F81223031052CF48E819F81009782
:1011900061F0D2C02E813F812230310571F18E8104
:1011A0009F8183309105E9F1C7C0ABE3B0E0EBE389
:1011B000F0E08081482F8A81282F30E081E090E0A4
:1011C000022E02C0880F991F0A94E2F7842B8C9399
:1011D000B3C0A8E3B0E0E8E3F0E08081482F8A8163
:1011E000282F30E081E090E0022E02C0880F991F86
:1011F0000A94E2F7842B8C939FC0A5E3B0E0E5E36B
:10120000F0E08081482F8A81282F30E081E090E053
:10121000022E02C0880F991F0A94E2F7842B8C9348
:101220008BC0A2E3B0E0E2E3F0E08081482F8A8146
:10123000282F30E081E090E0022E02C0880F991F35
:101240000A94E2F7842B8C9377C08B81882309F072
:1012500073C08981282F30E03D832C838C819D8150
:101260008130910559F12C813D81223031052CF4DA
:101270008C819D81009769F05FC02C813D81223077
:10128000310589F18C819D818330910509F440C03D
:1012900053C0ABE3B0E0EBE3F0E08081482F8A81FC
:1012A000282F30E081E090E0022E02C0880F991FC5
:1012B0000A94E2F7809584238C933EC0A8E3B0E0C3
:1012C000E8E3F0E08081482F8A81282F30E081E038
:1012D00090E0022E02C0880F991F0A94E2F78095D1
:1012E00084238C9329C0A5E3B0E0E5E3F0E080819E
:1012F000482F8A81282F30E081E090E0022E02C042
:10130000880F991F0A94E2F7809584238C9314C068
:10131000A2E3B0E0E2E3F0E08081482F8A81282F49
:1013200030E081E090E0022E02C0880F991F0A94FD
:10133000E2F7809584238C9327960FB6F894DEBF4E
:101340000FBECDBFCF91DF910895DF93CF9300D033
:1013500000D00F92CDB7DEB78A836B838A81282FA6
:1013600030E03D832C834C815D814130510541F15A
:101370008C819D818230910534F42C813D81211531
:10138000310561F052C04C815D814230510551F10F
:101390008C819D8183309105B9F147C0E9E3F0E08C
:1013A0008081282F30E08B81882F90E0A90102C036
:1013B000559547958A95E2F7CA018170898335C0B2
:1013C000E6E3F0E08081282F30E08B81882F90E0E9
:1013D000A90102C0559547958A95E2F7CA01817027
:1013E000898323C0E3E3F0E08081282F30E08B8104
:1013F000882F90E0A90102C0559547958A95E2F79C
:10140000CA018170898311C0E0E3F0E08081282F58
:1014100030E08B81882F90E0A90102C05595479557
:101420008A95E2F7CA018170898389810F900F90B4
:101430000F900F900F90CF91DF910895DF93CF938E
:1014400000D000D0CDB7DEB789836A838981282F89
:1014500030E03C832B838B819C818130910549F165
:101460002B813C81223031052CF48B819C810097AB
:1014700061F05AC02B813C812230310571F18B81A2
:101480009C8183309105E9F14FC0ABE3B0E0EBE321
:10149000F0E08081482F8A81282F30E081E090E0C1
:1014A000022E02C0880F991F0A94E2F784278C93BA
:1014B0003BC0A8E3B0E0E8E3F0E08081482F8A81F8
:1014C000282F30E081E090E0022E02C0880F991FA3
:1014D0000A94E2F784278C9327C0A5E3B0E0E5E304
:1014E000F0E08081482F8A81282F30E081E090E071
:1014F000022E02C0880F991F0A94E2F784278C936A
:1015000013C0A2E3B0E0E2E3F0E08081482F8A81DB
:10151000282F30E081E090E0022E02C0880F991F52
:101520000A94E2F784278C930F900F900F900F90FE
:10153000CF91DF910895DF93CF9300D000D0CDB746
:10154000DEB789836A838981282F30E03C832B832F
:101550008B819C8181309105D1F02B813C8122309F
:1015600031052CF48B819C81009761F01EC02B818A
:101570003C812230310581F08B819C818330910543
:1015800081F013C0EBE3F0E08A8180830EC0E8E3D2
:10159000F0E08A81808309C0E5E3F0E08A818083FE
:1015A00004C0E2E3F0E08A8180830F900F900F90F7
:1015B0000F90CF91DF910895DF93CF9300D000D0AB
:1015C000CDB7DEB789836A838981282F30E03C83D9
:1015D0002B838B819C8181309105D1F02B813C81C3
:1015E000223031052CF48B819C81009761F01EC064
:1015F0002B813C812230310581F08B819C818330AD
:10160000910581F013C0EAE3F0E08A8180830EC087
:10161000E7E3F0E08A81808309C0E4E3F0E08A81B7
:10162000808304C0E1E3F0E08A8180830F900F9013
:101630000F900F90CF91DF910895DF93CF93CDB7A7
:10164000DEB780E06FE00E94DC0A80E06FEF0E946E
:101650009B0ACF91DF910895DF93CF93CDB7DEB78B
:1016600062970FB6F894DEBF0FBECDBF82E38A8BC0
:10167000188AD4C08889882F90E0FC01E357FE4F78
:10168000908180E0692F40E00E94A5081F86B3C0CA
:101690008F85882F90E0FC01EF56FE4F908180E00F
:1016A000692F0E94A509898B8989882309F0A0C028
:1016B00080E090E0A0EAB0E48B879C87AD87BE878E
:1016C0006B857C858D859E8520E030E04AEF54E473
:1016D0000E941F02DC01CB018F839887A987BA87FC
:1016E0006F81788589859A8520E030E040E85FE366
:1016F0000E94550488232CF481E090E09E838D8322
:101700003FC06F81788589859A8520E03FEF4FE75C
:1017100057E40E94F50318164CF56B857C858D8582
:101720009E8520E030E040E251E40E941F02DC018F
:10173000CB01BC01CD010E944900DC01CB019E839D
:101740008D830FC088EC90E09C838B838B819C8180
:101750000197F1F79C838B838D819E8101979E83F6
:101760008D838D819E81009769F714C06F81788584
:1017700089859A850E944900DC01CB019E838D8377
:101780008D819E819A83898389819A810197F1F75E
:101790009A8389838F85882F90E0FC01EF56FE4F56
:1017A000908180E0692F0E94A509898B0CC08F85EC
:1017B000882F90E0FC01EF56FE4F908180E0692F6A
:1017C0000E94A509898B8989882389F38889482FF4
:1017D00050E08F85282F30E0CA01880F991F880FAD
:1017E000991F820F931FFC01EB56FE4F80818A8B5D
:1017F0008F858F5F8F878F85843008F449CF8889E4
:10180000882F90E0FC01E357FE4F908180E0692F24
:1018100041E00E94A50888898F5F888B8889843081
:1018200008F428CF8A8962960FB6F894DEBF0FBEFF
:10183000CDBFCF91DF9108950F931F93DF93CF9387
:10184000CDB7DEB7CC54D0400FB6F894DEBF0FBE94
:10185000CDBF81E06FEF0E94DC0A81E060E041E0F3
:101860000E94A50881E061E041E00E94A50881E0B6
:1018700062E041E00E94A50883E06FEF0E94DC0A6D
:1018800083E060E00E949B0AFE01E75BFF4F80E07F
:1018900090E0ACE0B2E480839183A283B3838E01B5
:1018A0000B5B1F4FFE01E75BFF4F608171818281FF
:1018B000938120E030E04AEF54E40E941F02DC01F3
:1018C000CB01F80180839183A283B383FE01EB5B9C
:1018D000FF4F608171818281938120E030E040E898
:1018E0005FE30E945504882344F4FE01ED5BFF4F43
:1018F00081E090E09183808364C0FE01EB5BFF4F49
:10190000608171818281938120E03FEF4FE757E44E
:101910000E94F50318160CF043C0FE01E75BFF4F71
:10192000608171818281938120E030E040E251E466
:101930000E941F02DC01CB018E010D5B1F4FBC0119
:10194000CD010E944900DC01CB01F8019183808325
:101950001FC0FE01EF5BFF4F88EC90E09183808316
:10196000FE01EF5BFF4F808191810197F1F7FE014E
:10197000EF5BFF4F91838083DE01AD5BBF4FFE01C4
:10198000ED5BFF4F80819181019711969C938E931F
:10199000FE01ED5BFF4F808191810097D1F624C05D
:1019A0008E010D5B1F4FFE01EB5BFF4F608171816C
:1019B000828193810E944900DC01CB01F80191836F
:1019C0008083FE01ED5BFF4F80819181FE01FF96D8
:1019D00091838083FE01FF96808191810197F1F7C9
:1019E000FE01FF969183808388E30E94FA0E80E0D7
:1019F00090E0A0E2B2E48BAF9CAFADAFBEAF6BADF9
:101A00007CAD8DAD9EAD2BEA3AEA4AE250E40E94ED
:101A10001F02DC01CB018FAB98AFA9AFBAAF6FA9A2
:101A200078AD89AD9AAD20E030E040E85FE30E94F8
:101A3000550488231CF481E08EAB91C06FA978AD6A
:101A400089AD9AAD20E030E04FE753E40E94F50302
:101A500018160CF07BC06BAD7CAD8DAD9EAD20E05B
:101A600030E04AE754E40E941903DC01CB018AAB61
:101A70009BABACABBDAB6AA97BA98CA99DA920E0AF
:101A800030E04AEF54E40E941F02DC01CB018EA734
:101A90009FA7A8ABB9AB6EA57FA588A999A920E09F
:101AA00030E040E85FE30E94550488232CF481E095
:101AB00090E09DA78CA73FC06EA57FA588A999A996
:101AC00020E03FEF4FE757E40E94F50318164CF56E
:101AD0006AA97BA98CA99DA920E030E040E251E4ED
:101AE0000E941F02DC01CB01BC01CD010E94490014
:101AF000DC01CB019DA78CA70FC088EC90E09BA7D1
:101B00008AA78AA59BA50197F1F79BA78AA78CA511
:101B10009DA501979DA78CA78CA59DA5009769F70A
:101B200024C06EA57FA588A999A90E944900DC015F
:101B3000CB019DA78CA78CA59DA599A788A788A553
:101B400099A50197F1F799A788A70FC06FA978AD5C
:101B500089AD9AAD0E944900DC01CB018EAB8EA904
:101B60008FA38FA18A95F1F78FA38CE00E94FA0EC4
:101B700080E090E0A0E2B2E48BA39CA3ADA3BEA35F
:101B80006BA17CA18DA19EA12BEA3AEA4AE250E426
:101B90000E941F02DC01CB018F8F98A3A9A3BAA3D7
:101BA0006F8D78A189A19AA120E030E040E85FE341
:101BB0000E94550488231CF481E08E8F91C06F8DA4
:101BC00078A189A19AA120E030E04FE753E40E9478
:101BD000F50318160CF07BC06BA17CA18DA19EA112
:101BE00020E030E04AE754E40E941903DC01CB0115
:101BF0008A8F9B8FAC8FBD8F6A8D7B8D8C8D9D8DD9
:101C000020E030E04AEF54E40E941F02DC01CB01E7
:101C10008E8B9F8BA88FB98F6E897F89888D998DC8
:101C200020E030E040E85FE30E94550488232CF474
:101C300081E090E09D8B8C8B3FC06E897F89888D81
:101C4000998D20E03FEF4FE757E40E94F503181607
:101C50004CF56A8D7B8D8C8D9D8D20E030E040E2CF
:101C600051E40E941F02DC01CB01BC01CD010E94A6
:101C70004900DC01CB019D8B8C8B0FC088EC90E080
:101C80009B8B8A8B8A899B890197F1F79B8B8A8B27
:101C90008C899D8901979D8B8C8B8C899D89009760
:101CA00069F724C06E897F89888D998D0E944900CB
:101CB000DC01CB019D8B8C8B8C899D89998B888BCA
:101CC000888999890197F1F7998B888B0FC06F8D5F
:101CD00078A189A19AA10E944900DC01CB018E8FD5
:101CE0008E8D8F878F858A95F1F78F8781E00E948F
:101CF000FA0E80E090E0A0E0B0E48B879C87AD878F
:101D0000BE876B857C858D859E8520E030E04AEF1F
:101D100054E40E941F02DC01CB018F839887A987BE
:101D2000BA876F81788589859A8520E030E040E820
:101D30005FE30E94550488232CF481E090E09E83A9
:101D40008D833FC06F81788589859A8520E03FEF3C
:101D50004FE757E40E94F50318164CF56B857C8518
:101D60008D859E8520E030E040E251E40E941F0214
:101D7000DC01CB01BC01CD010E944900DC01CB019B
:101D80009E838D830FC088EC90E09C838B838B8136
:101D90009C810197F1F79C838B838D819E810197B4
:101DA0009E838D838D819E81009769F714C06F811A
:101DB000788589859A850E944900DC01CB019E8344
:101DC0008D838D819E819A83898389819A810197F0
:101DD000F1F79A83898386E00E94FA0EC45BDF4F95
:101DE0000FB6F894DEBF0FBECDBFCF91DF911F912C
:101DF0000F910895DF93CF93CDB7DEB769970FB6F4
:101E0000F894DEBF0FBECDBF898F81E060E040E077
:101E10000E94A50881E061E040E00E94A50883E0FF
:101E2000698D0E949B0A81E062E041E00E94A50862
:101E300080E090E0A0E8BFE38D8B9E8BAF8BB88FE6
:101E40006D897E898F89988D2BEA3AEA4AE250E4BF
:101E50000E941F02DC01CB01898B9A8BAB8BBC8B60
:101E600069897A898B899C8920E030E040E85FE3CA
:101E70000E94550488231CF481E0888B91C06989F5
:101E80007A898B899C8920E030E04FE753E40E94F7
:101E9000F50318160CF07BC06D897E898F89988DAB
:101EA00020E030E04AE754E40E941903DC01CB0152
:101EB0008C879D87AE87BF876C857D858E859F8546
:101EC00020E030E04AEF54E40E941F02DC01CB0125
:101ED00088879987AA87BB87688579858A859B8546
:101EE00020E030E040E85FE30E94550488232CF4B2
:101EF00081E090E09F838E833FC0688579858A85E5
:101F00009B8520E03FEF4FE757E40E94F50318164A
:101F10004CF56C857D858E859F8520E030E040E224
:101F200051E40E941F02DC01CB01BC01CD010E94E3
:101F30004900DC01CB019F838E830FC088EC90E0C9
:101F40009D838C838C819D810197F1F79D838C8388
:101F50008E819F8101979F838E838E819F810097C1
:101F600069F724C0688579858A859B850E94490028
:101F7000DC01CB019F838E838E819F819B838A832B
:101F80008A819B810197F1F79B838A830FC06989BE
:101F90007A898B899C890E944900DC01CB01888B5E
:101FA0008889898389818A95F1F7898381E062E054
:101FB00040E00E94A50869960FB6F894DEBF0FBEF8
:101FC000CDBFCF91DF910895DF93CF93CDB7DEB72B
:101FD00069970FB6F894DEBF0FBECDBF898F81E041
:101FE00060E041E00E94A50881E061E040E00E94DD
:101FF000A50883E0698D0E949B0A81E062E041E0D0
:102000000E94A50880E090E0A0E8BFE38D8B9E8B46
:10201000AF8BB88F6D897E898F89988D2BEA3AEACC
:102020004AE250E40E941F02DC01CB01898B9A8BAB
:10203000AB8BBC8B69897A898B899C8920E030E0E5
:1020400040E85FE30E94550488231CF481E0888BFC
:1020500091C069897A898B899C8920E030E04FE7BB
:1020600053E40E94F50318160CF07BC06D897E893D
:102070008F89988D20E030E04AE754E40E941903EC
:10208000DC01CB018C879D87AE87BF876C857D8502
:102090008E859F8520E030E04AEF54E40E941F02C5
:1020A000DC01CB0188879987AA87BB8768857985FA
:1020B0008A859B8520E030E040E85FE30E9455047C
:1020C00088232CF481E090E09F838E833FC0688555
:1020D00079858A859B8520E03FEF4FE757E40E9492
:1020E000F50318164CF56C857D858E859F8520E05F
:1020F00030E040E251E40E941F02DC01CB01BC0150
:10210000CD010E944900DC01CB019F838E830FC06B
:1021100088EC90E09D838C838C819D810197F1F701
:102120009D838C838E819F8101979F838E838E8177
:102130009F81009769F724C0688579858A859B858A
:102140000E944900DC01CB019F838E838E819F8199
:102150009B838A838A819B810197F1F79B838A8382
:102160000FC069897A898B899C890E944900DC01AA
:10217000CB01888B8889898389818A95F1F7898346
:1021800081E062E040E00E94A50869960FB6F894ED
:10219000DEBF0FBECDBFCF91DF910895DF93CF9308
:1021A00000D00F92CDB7DEB79B838A8319820EC011
:1021B0008981282F30E08A819B81FC01E20FF31F87
:1021C00080810E94E40F89818F5F89838981282F14
:1021D00030E08A819B81FC01E20FF31F808188231C
:1021E00039F70F900F900F90CF91DF9108950F93D3
:1021F0001F93DF93CF93CDB7DEB765970FB6F894F3
:10220000DEBF0FBECDBF6A8B7B8B8C8B9D8B198203
:102210008A899B89AC89BD890097A105B10589F59B
:1022200080E30E94E40F2DC089818F5F89838981BB
:10223000082F10E08A899B89AC89BD892AE030E0AB
:1022400040E050E0BC01CD010E949A1DDC01CB01B1
:10225000282FCE010296FC01E00FF11F20838A890E
:102260009B89AC89BD892AE030E040E050E0BC01A8
:10227000CD010E949A1DDA01C9018A8B9B8BAC8B20
:10228000BD8B8A899B89AC89BD890097A105B10561
:1022900059F60FC08981282F30E0CE010296FC014B
:1022A000E20FF31F8081805D0E94E40F89818150DD
:1022B00089838981882371F765960FB6F894DEBF0C
:1022C0000FBECDBFCF91DF911F910F910895DF9386
:1022D000CF93CDB7DEB762970FB6F894DEBF0FBECF
:1022E000CDBF6F87788B898B9A8B6F857889898929
:1022F0009A8920E030E040E050E00E9455048823B5
:102300007CF46F85788989899A8920E030E040E8FB
:102310005FEB0E94F50318161CF48DE20E94E40F97
:102320006F85788989899A890E94E304DC01CB0151
:10233000BC01CD010E9485049B01AC016F857889A9
:1023400089899A890E94C101DC01CB018B879C8716
:10235000AD87BE876F85788989899A890E94E30451
:10236000DC01CB01BC01CD010E94F7106B857C859F
:102370008D859E8520E030E040E050E00E94C5035E
:10238000882309F46DC08EE20E94E40F6B857C8582
:102390008D859E8520E030E04AE754E40E941F02CC
:1023A000DC01CB01BC01CD010E944900DC01CB0165
:1023B0008F839887A987BA878F819885A985BA85E1
:1023C000BB237CF48F819885A985BA85B095A095AB
:1023D000909581959F4FAF4FBF4F8F839887A98767
:1023E000BA878F819885A985BA858B839C83AD83B5
:1023F000BE831A8215C08A818F5F8A838F819885F8
:10240000A985BA852AE030E040E050E0BC01CD016A
:102410000E94BC1DDA01C9018F839887A987BA87FA
:102420008F819885A985BA850097A105B10519F70F
:1024300083E0898309C060E070E080E090E00E9462
:10244000F71089818150898399818A81891798F34E
:102450008B819C81AD81BE81BC01CD010E94F710B2
:1024600062960FB6F894DEBF0FBECDBFCF91DF915D
:102470000895DF93CF9300D000D0CDB7DEB7898326
:102480006A838A818832C8F48981282F30E03C83AE
:102490002B838B819C818130910531F02B813C8194
:1024A0002230310531F009C08A8180580E94FA0E2D
:1024B00004C08A8180540E94FA0E0F900F900F90F2
:1024C0000F90CF91DF910895DF93CF93CDB7DEB713
:1024D00069970FB6F894DEBF0FBECDBF898F898D87
:1024E000882F90E00896880F991F880F991F880FF2
:1024F000991F0E94FA0E80E090E0A0E2B2E48D8B7A
:102500009E8BAF8BB88F6D897E898F89988D2BEAD2
:102510003AEA4AE250E40E941F02DC01CB01898BB7
:102520009A8BAB8BBC8B69897A898B899C8920E0DB
:1025300030E040E85FE30E94550488231CF481E00A
:10254000888B91C069897A898B899C8920E030E0E9
:102550004FE753E40E94F50318160CF07BC06D8919
:102560007E898F89988D20E030E04AE754E40E940C
:102570001903DC01CB018C879D87AE87BF876C85F3
:102580007D858E859F8520E030E04AEF54E40E94EF
:102590001F02DC01CB0188879987AA87BB876885E2
:1025A00079858A859B8520E030E040E85FE30E94E2
:1025B000550488232CF481E090E09F838E833FC0F4
:1025C000688579858A859B8520E03FEF4FE757E452
:1025D0000E94F50318164CF56C857D858E859F85C8
:1025E00020E030E040E251E40E941F02DC01CB0118
:1025F000BC01CD010E944900DC01CB019F838E8389
:102600000FC088EC90E09D838C838C819D81019725
:10261000F1F79D838C838E819F8101979F838E83A9
:102620008E819F81009769F724C0688579858A85A6
:102630009B850E944900DC01CB019F838E838E81A4
:102640009F819B838A838A819B810197F1F79B837A
:102650008A830FC069897A898B899C890E94490085
:10266000DC01CB01888B8889898389818A95F1F780
:10267000898369960FB6F894DEBF0FBECDBFCF91A8
:10268000DF910895AF92CF92EF920F93DF93CF93A4
:10269000CDB7DEB728970FB6F894DEBF0FBECDBF1B
:1026A00089836A834B832C830D83EE82CF82A88635
:1026B00089810E94E40F8A810E94E40F8B810E942D
:1026C000E40F8C810E94E40F8D810E94E40F8E81C3
:1026D0000E94E40F8F810E94E40F88850E94E40F1E
:1026E00028960FB6F894DEBF0FBECDBFCF91DF9115
:1026F0000F91EF90CF90AF900895DF93CF9300D0DC
:102700000F92CDB7DEB789836A834B838A816B8151
:102710000E94391289810E94E40F0F900F900F9050
:10272000CF91DF910895DF93CF9300D0CDB7DEB77F
:102730009A838983E981FA8180810E94E40F8981EB
:102740009A81FC01319680810E94E40F89819A81EF
:10275000FC01329680810E94E40F89819A81FC01FC
:10276000339680810E94E40F89819A81FC0134961E
:1027700080810E94E40F89819A81FC0135968081D5
:102780000E94E40F89819A81FC01369680810E9423
:10279000E40F89819A81FC01379680810E94E40FC1
:1027A0000F900F90CF91DF910895DF93CF93CDB726
:1027B000DEB72E970FB6F894DEBF0FBECDBF81E017
:1027C0000E94FA0E80E090E0A0E0B0E48B879C8746
:1027D000AD87BE876B857C858D859E8520E030E04A
:1027E0004AEF54E40E941F02DC01CB018F839887DB
:1027F000A987BA876F81788589859A8520E030E03E
:1028000040E85FE30E94550488232CF481E090E0C7
:102810009E838D833FC06F81788589859A8520E06E
:102820003FEF4FE757E40E94F50318164CF56B8510
:102830007C858D859E8520E030E040E251E40E9459
:102840001F02DC01CB01BC01CD010E944900DC016B
:10285000CB019E838D830FC088EC90E09C838B839B
:102860008B819C810197F1F79C838B838D819E8165
:1028700001979E838D838D819E81009769F714C097
:102880006F81788589859A850E944900DC01CB019A
:102890009E838D838D819E819A83898389819A818C
:1028A0000197F1F79A8389832E960FB6F894DEBFCD
:1028B0000FBECDBFCF91DF9108950F931F93DF938C
:1028C000CF93CDB7DEB7C755D0400FB6F894DEBF73
:1028D0000FBECDBF0E941C0C0E941D0BFE01EF5AC3
:1028E000FF4F80E090E8ABE3B5E480839183A2835F
:1028F000B3838E01035B1F4FFE01EF5AFF4F6081D0
:1029000071818281938120E030E04AEF54E40E949B
:102910001F02DC01CB01F80180839183A283B38382
:10292000FE01E35BFF4F608171818281938120E032
:1029300030E040E85FE30E945504882344F4FE0140
:10294000E55BFF4F81E090E09183808364C0FE01EE
:10295000E35BFF4F608171818281938120E03FEFD3
:102960004FE757E40E94F50318160CF043C0FE0130
:10297000EF5AFF4F608171818281938120E030E0C6
:1029800040E251E40E941F02DC01CB018E01055B95
:102990001F4FBC01CD010E944900DC01CB01F801B1
:1029A000918380831FC0FE01E75BFF4F88EC90E0BE
:1029B00091838083FE01E75BFF4F808191810197C6
:1029C000F1F7FE01E75BFF4F91838083DE01A55B9A
:1029D000BF4FFE01E55BFF4F80819181019711960A
:1029E0009C938E93FE01E55BFF4F80819181009760
:1029F000D1F627C08E01055B1F4FFE01E35BFF4F41
:102A000060817181828193810E944900DC01CB0148
:102A1000F80191838083DE01A95BBF4FFE01E55B76
:102A2000FF4F808191818D939C93FE01E95BFF4F65
:102A3000808191810197F1F7FE01E95BFF4F91835E
:102A4000808380E690E00E94CE10FE01ED5BFF4F98
:102A500080E090E0AAE7B3E480839183A283B3830C
:102A60008E01015C1F4FFE01ED5BFF4F60817181A4
:102A70008281938120E030E04AEF54E40E941F02FB
:102A8000DC01CB01F80180839183A283B383FE0133
:102A9000FF96608171818281938120E030E040E87F
:102AA0005FE30E94550488232CF481E090E09EAF00
:102AB0008DAF46C0FE01FF96608171818281938156
:102AC00020E03FEF4FE757E40E94F503181664F546
:102AD000FE01ED5BFF4F608171818281938120E077
:102AE00030E040E251E40E941F02DC01CB01BC0156
:102AF000CD010E944900DC01CB019EAF8DAF0FC01C
:102B000088EC90E09CAF8BAF8BAD9CAD0197F1F75B
:102B10009CAF8BAF8DAD9EAD01979EAF8DAF8DAD50
:102B20009EAD009769F716C0FE01FF966081718126
:102B3000828193810E944900DC01CB019EAF8DAF61
:102B40008DAD9EAD9AAF89AF89AD9AAD0197F1F782
:102B50009AAF89AF8EE20E94E40F80E090E0AAE78E
:102B6000B3E48DAB9EABAFABB8AF6DA97EA98FA917
:102B700098AD20E030E04AEF54E40E941F02DC01EF
:102B8000CB0189AB9AABABABBCAB69A97AA98BA9DA
:102B90009CA920E030E040E85FE30E9455048823D0
:102BA0002CF481E090E098AB8FA73FC069A97AA987
:102BB0008BA99CA920E03FEF4FE757E40E94F50363
:102BC00018164CF56DA97EA98FA998AD20E030E0CC
:102BD00040E251E40E941F02DC01CB01BC01CD01A7
:102BE0000E944900DC01CB0198AB8FA70FC088EC95
:102BF00090E09EA78DA78DA59EA50197F1F79EA7B2
:102C00008DA78FA598A9019798AB8FA78FA598A995
:102C1000009769F714C069A97AA98BA99CA90E9499
:102C20004900DC01CB0198AB8FA78FA598A99CA781
:102C30008BA78BA59CA50197F1F79CA78BA78EE28C
:102C40000E94E40F80E090E0AAE7B3E48FA398A786
:102C5000A9A7BAA76FA178A589A59AA520E030E019
:102C60004AEF54E40E941F02DC01CB018BA39CA31A
:102C7000ADA3BEA36BA17CA18DA19EA120E030E0FD
:102C800040E85FE30E94550488232CF481E090E043
:102C90009AA389A33FC06BA17CA18DA19EA120E036
:102CA0003FEF4FE757E40E94F50318164CF56FA16C
:102CB00078A589A59AA520E030E040E251E40E9481
:102CC0001F02DC01CB01BC01CD010E944900DC01E7
:102CD000CB019AA389A30FC088EC90E098A38F8FB3
:102CE0008F8D98A10197F1F798A38F8F89A19AA151
:102CF00001979AA389A389A19AA1009769F714C0A3
:102D00006BA17CA18DA19EA10E944900DC01CB0199
:102D10009AA389A389A19AA19E8F8D8F8D8D9E8D57
:102D20000197F1F79E8F8D8F8EE20E94E40F80E075
:102D300090E0AAE7B3E4898F9A8FAB8FBC8F698D3F
:102D40007A8D8B8D9C8D20E030E04AEF54E40E9418
:102D50001F02DC01CB018D8B9E8BAF8BB88F6D89F1
:102D60007E898F89988D20E030E040E85FE30E9403
:102D7000550488232CF481E090E09C8B8B8B3FC022
:102D80006D897E898F89988D20E03FEF4FE757E46A
:102D90000E94F50318164CF5698D7A8D8B8D9C8DEC
:102DA00020E030E040E251E40E941F02DC01CB0150
:102DB000BC01CD010E944900DC01CB019C8B8B8BB7
:102DC0000FC088EC90E09A8B898B89899A8901974A
:102DD000F1F79A8B898B8B899C8901979C8B8B8BC4
:102DE0008B899C89009769F714C06D897E898F89CA
:102DF000988D0E944900DC01CB019C8B8B8B8B89C9
:102E00009C89988B8F878F8598890197F1F7988B8C
:102E10008F870E94D51381E064E00E94391289E611
:102E200090E00E94CE1082E062E00E94391281E7B9
:102E300090E00E94CE1080E090E0A6E9B4E48B8799
:102E40009C87AD87BE876B857C858D859E8520E0C0
:102E500030E04AEF54E40E941F02DC01CB018F8373
:102E60009887A987BA876F81788589859A8520E0B8
:102E700030E040E85FE30E94550488232CF481E0B1
:102E800090E09E838D833FC06F81788589859A8588
:102E900020E03FEF4FE757E40E94F50318164CF58A
:102EA0006B857C858D859E8520E030E040E251E495
:102EB0000E941F02DC01CB01BC01CD010E94490030
:102EC000DC01CB019E838D830FC088EC90E09C8356
:102ED0008B838B819C810197F1F79C838B838D8100
:102EE0009E8101979E838D838D819E81009769F7D6
:102EF00014C06F81788589859A850E944900DC011C
:102F0000CB019E838D838D819E819A838983898164
:102F10009A810197F1F79A8389830E94D5130E94C1
:102F20002C0BFE01EB5AFF4F8083FE01EB5AFF4F43
:102F30008081823309F46EC0FE01EB5AFF4F80811D
:102F40008F3209F467C0FE01EB5AFF4F80818A324D
:102F500009F460C0FE01EB5AFF4F80818B3209F407
:102F600059C0FE01EB5AFF4F80818D3209F452C0E7
:102F7000FE01EB5AFF4F80818D3309F44BC0FE01F7
:102F8000EB5AFF4F8081853209F444C08091A7013C
:102F9000882391F48091A601882F90E0DC01A7544A
:102FA000BE4FFE01EB5AFF4F80818C938091A601AA
:102FB0008F5F8093A60115C08091A701813089F4AD
:102FC0008091A801882F90E0DC01A454BE4FFE013F
:102FD000EB5AFF4F80818C938091A8018F5F809383
:102FE000A801FE01EB5AFF4F8081882F90E0A0E0FE
:102FF000B0E0BC01CD010E94F7108091A6018430A1
:1030000020F48091A801843010F00E94FB190E94E6
:10301000881A85CFFE01EB5AFF4F8081823349F039
:10302000FE01EB5AFF4F8081853219F40E94C419CA
:1030300076CFFE01EB5AFF4F8081823309F45BC0EB
:10304000FE01EB5AFF4F80818D3309F454C081E0BB
:103050008093A7018091AB018F5F8093AB0180913A
:10306000AB01813059F4FE01EB5AFF4F8081809310
:10307000A9018091A9010E94E40F3AC08091AB019F
:103080008230B0F1FE01EB5AFF4F80818093AA019C
:103090009091AA018091A901981751F18091A60100
:1030A000813049F481E061E00E9439128091AA01E7
:1030B0000E94E40F19C08091A601823049F481E09A
:1030C00062E00E9439128091AA010E94E40F0CC0B4
:1030D0008091A601833041F481E063E00E943912BF
:1030E0008091AA010E94E40F8091AA018093A90116
:1030F0000E94881A14CFFE01EB5AFF4F8081823361
:1031000009F40DCFFE01EB5AFF4F80818D3309F09A
:1031100006CF8091AC018F5F8093AC01FE01EB5A2A
:10312000FF4F80810E94E40F0E94951A8091A901AF
:10313000282F30E068963FAF2EAF689768968EAD27
:103140009FAD68978B32910501F16896EEADFFADAA
:103150006897EC32F1054CF468962EAD3FAD689758
:103160002A32310509F44FC08CC068968EAD9FADF0
:1031700068978D32910541F16896EEADFFAD689785
:10318000EF32F10509F45EC07CC08091AD019091F1
:10319000AE01A091AF01B091B0012091B101309189
:1031A000B2014091B3015091B401BC01CD010E9424
:1031B000F201DC01CB018093B5019093B601A0939D
:1031C000B701B093B80169C08091AD019091AE0193
:1031D000A091AF01B091B0012091B1013091B20145
:1031E0004091B3015091B401BC01CD010E94C101D5
:1031F000DC01CB018093B5019093B601A093B70198
:10320000B093B8014AC08091AD019091AE01A091F8
:10321000AF01B091B0012091B1013091B201409164
:10322000B3015091B401BC01CD010E941F02DC0129
:10323000CB018093B5019093B601A093B701B093F1
:10324000B8012BC08091AD019091AE01A091AF016A
:10325000B091B0012091B1013091B2014091B30120
:103260005091B401BC01CD010E941903DC01CB01D6
:103270008093B5019093B601A093B701B093B801C4
:103280000CC080E090E0A0E8BFEB8093B501909384
:10329000B601A093B701B093B8018091A9018D3216
:1032A000B9F58091B1019091B201A091B301B091B3
:1032B000B4012091AD013091AE014091AF01509128
:1032C000B001BC01CD010E94F50318160CF58DE28A
:1032D0000E94E40F8091B1019091B201A091B301DD
:1032E000B091B4012091AD013091AE014091AF0198
:1032F0005091B001BC01CD010E94C101DC01CB01A4
:103300008093B5019093B601A093B701B093B80133
:103310008091B5019091B601A091B701B091B8012B
:10332000BC01CD0120E030E040E85FEB0E94C50326
:10333000882319F40E94FB190CC08091B50190916B
:10334000B601A091B701B091B801BC01CD010E94B6
:1033500067118091A9018F3209F0E1CD8091B1010F
:103360009091B201A091B301B091B401BC01CD0123
:1033700020E030E040E050E00E94C503882309F0DF
:10338000CECD0E94FB19CBCDDF93CF93CDB7DEB767
:103390001092A7011092A6011092A80180E090E07F
:1033A000A0E0B0E08093AD019093AE01A093AF0197
:1033B000B093B00180E090E0A0E0B0E08093B10174
:1033C0009093B201A093B301B093B40180E090E078
:1033D000A0E8BFEB8093B5019093B601A093B7012D
:1033E000B093B8011092AB011092AC010E94D513BA
:1033F000CF91DF910895DF93CF93CDB7DEB72E97AE
:103400000FB6F894DEBF0FBECDBF0E94C4198FE780
:1034100090E00E94CE1080E090E0AAE7B4E48B87B1
:103420009C87AD87BE876B857C858D859E8520E0DA
:1034300030E04AEF54E40E941F02DC01CB018F838D
:103440009887A987BA876F81788589859A8520E0D2
:1034500030E040E85FE30E94550488232CF481E0CB
:1034600090E09E838D833FC06F81788589859A85A2
:1034700020E03FEF4FE757E40E94F50318164CF5A4
:103480006B857C858D859E8520E030E040E251E4AF
:103490000E941F02DC01CB01BC01CD010E9449004A
:1034A000DC01CB019E838D830FC088EC90E09C8370
:1034B0008B838B819C810197F1F79C838B838D811A
:1034C0009E8101979E838D838D819E81009769F7F0
:1034D00014C06F81788589859A850E944900DC0136
:1034E000CB019E838D838D819E819A83898389817F
:1034F0009A810197F1F79A8389830E94C4192E96C5
:103500000FB6F894DEBF0FBECDBFCF91DF91089507
:10351000DF93CF93CDB7DEB78091AC01882311F054
:103520000E94C419CF91DF910895DF93CF93CDB757
:10353000DEB78091A601833009F072C08091A801A6
:10354000833009F06DC08091B901282F30E084E606
:1035500090E0289FA001299F500D389F500D112405
:103560008091BA01882F90E09C01220F331FC9017E
:10357000880F991F880F991F820F931F9A01280F98
:10358000391F8091BB01882F90E0820F931FAA27DB
:1035900097FDA095BA2FBC01CD010E948504DC01E6
:1035A000CB018093AD019093AE01A093AF01B09396
:1035B000B0018091BC01282F30E084E690E0289F84
:1035C000A001299F500D389F500D11248091BD01FD
:1035D000882F90E09C01220F331FC901880F991F8B
:1035E000880F991F820F931F9A01280F391F80910E
:1035F000BE01882F90E0820F931FAA2797FDA09508
:10360000BA2FBC01CD010E948504DC01CB0180935F
:10361000B1019093B201A093B301B093B40187C2FA
:103620008091A601833009F062C08091A8018230A8
:1036300009F05DC08091B901282F30E084E690E068
:10364000289FA001299F500D389F500D1124809173
:10365000BA01882F90E09C01220F331FC901880F07
:10366000991F880F991F820F931F9A01280F391FE6
:103670008091BB01882F90E0820F931FAA2797FDAE
:10368000A095BA2FBC01CD010E948504DC01CB01BD
:103690008093AD019093AE01A093AF01B093B001C0
:1036A0008091BC01882F90E09C01220F331FC9013B
:1036B000880F991F880F991F280F391F8091BD010E
:1036C000882F90E0820F931FAA2797FDA095BA2F0D
:1036D000BC01CD010E948504DC01CB018093B101C6
:1036E0009093B201A093B301B093B40120C2809132
:1036F000A601833009F050C08091A801813009F003
:103700004BC08091B901282F30E084E690E0289FDB
:10371000A001299F500D389F500D11248091BA01AE
:10372000882F90E09C01220F331FC901880F991F39
:10373000880F991F820F931F9A01280F391F8091BC
:10374000BB01882F90E0820F931FAA2797FDA095B9
:10375000BA2FBC01CD010E948504DC01CB0180930E
:10376000AD019093AE01A093AF01B093B0018091F1
:10377000BC01882F90E0A0E0B0E0BC01CD010E9428
:103780003705DC01CB018093B1019093B201A09386
:10379000B301B093B401CBC18091A601823009F08E
:1037A00062C08091A801833009F05DC08091B901A9
:1037B000882F90E09C01220F331FC901880F991FA9
:1037C000880F991F280F391F8091BA01882F90E028
:1037D000820F931FAA2797FDA095BA2FBC01CD0198
:1037E0000E948504DC01CB018093AD019093AE0172
:1037F000A093AF01B093B0018091BC01282F30E0BD
:1038000084E690E0289FA001299F500D389F500D1D
:1038100011248091BD01882F90E09C01220F331F5D
:10382000C901880F991F880F991F820F931F9A0152
:10383000280F391F8091BE01882F90E0820F931FBF
:10384000AA2797FDA095BA2FBC01CD010E9485043F
:10385000DC01CB018093B1019093B201A093B3013D
:10386000B093B40164C18091A601823009F052C0C6
:103870008091A801823009F04DC08091B901882F54
:1038800090E09C01220F331FC901880F991F880FF8
:10389000991F280F391F8091BA01882F90E0820F5D
:1038A000931FAA2797FDA095BA2FBC01CD010E94B6
:1038B0008504DC01CB018093AD019093AE01A09310
:1038C000AF01B093B0018091BC01882F90E09C01C2
:1038D000220F331FC901880F991F880F991F280FC6
:1038E000391F8091BD01882F90E0820F931FAA2776
:1038F00097FDA095BA2FBC01CD010E948504DC0183
:10390000CB018093B1019093B201A093B301B09326
:10391000B4010DC18091A601823009F03FC08091B1
:10392000A8018130D9F58091B901882F90E09C01E0
:10393000220F331FC901880F991F880F991F280F65
:10394000391F8091BA01882F90E0820F931FAA2718
:1039500097FDA095BA2FBC01CD010E948504DC0122
:10396000CB018093AD019093AE01A093AF01B093D2
:10397000B0018091BC01882F90E0A0E0B0E0BC01D4
:10398000CD010E943705DC01CB018093B1019093FA
:10399000B201A093B301B093B401C9C08091A60154
:1039A000813069F58091A801813049F58091B90194
:1039B000882F90E0A0E0B0E0BC01CD010E94370567
:1039C000DC01CB018093AD019093AE01A093AF01D8
:1039D000B093B0018091BC01882F90E0A0E0B0E0EE
:1039E000BC01CD010E943705DC01CB018093B10100
:1039F0009093B201A093B301B093B40198C08091A9
:103A0000A601813009F03FC08091A8018230D9F52C
:103A10008091B901882F90E0A0E0B0E0BC01CD0119
:103A20000E943705DC01CB018093AD019093AE017C
:103A3000A093AF01B093B0018091BC01882F90E0BA
:103A40009C01220F331FC901880F991F880F991FEE
:103A5000280F391F8091BD01882F90E0820F931F9E
:103A6000AA2797FDA095BA2FBC01CD010E9485041D
:103A7000DC01CB018093B1019093B201A093B3011B
:103A8000B093B40154C08091A601813009F04FC0B9
:103A90008091A801833009F04AC08091B901882F34
:103AA00090E0A0E0B0E0BC01CD010E943705DC0150
:103AB000CB018093AD019093AE01A093AF01B09381
:103AC000B0018091BC01282F30E084E690E0289F6F
:103AD000A001299F500D389F500D11248091BD01E8
:103AE000882F90E09C01220F331FC901880F991F76
:103AF000880F991F820F931F9A01280F391F8091F9
:103B0000BE01882F90E0820F931FAA2797FDA095F2
:103B1000BA2FBC01CD010E948504DC01CB0180934A
:103B2000B1019093B201A093B301B093B401CF91CE
:103B3000DF910895A1E21A2EAA1BBB1BFD010DC047
:103B4000AA1FBB1FEE1FFF1FA217B307E407F5074D
:103B500020F0A21BB30BE40BF50B661F771F881F29
:103B6000991F1A9469F760957095809590959B01BF
:103B7000AC01BD01CF01089597FB092E05260ED09B
:103B800057FD04D0D7DF0AD0001C38F4509540957B
:103B9000309521953F4F4F4F5F4F0895F6F7909521
:103BA0008095709561957F4F8F4F9F4F08952F920D
:103BB0003F924F925F926F927F928F929F92AF92BD
:103BC000BF92CF92DF92EF92FF920F931F93CF930A
:103BD000DF93CDB7DEB7CA1BDB0B0FB6F894DEBFA1
:103BE0000FBECDBF09942A88398848885F846E84C7
:103BF0007D848C849B84AA84B984C884DF80EE8011
:103C0000FD800C811B81AA81B981CE0FD11D0FB619
:103C1000F894DEBF0FBECDBFED010895F894FFCF3D
:103C20004C6F6164696E672E0057656C63616D65EA
:103C300000436C61632049732052656164790045DB
:103C400072726F72000000000000000000000102AC
:103C50000203030303040404040404040405050527
:103C60000505050505050505050505050506060601
:103C700006060606060606060606060606060606E4
:103C800006060606060606060606060606070707D1
:103C900007070707070707070707070707070707B4
:103CA00007070707070707070707070707070707A4
:103CB0000707070707070707070707070707070794
:103CC0000707070707070707070707070708080881
:103CD0000808080808080808080808080808080864
:103CE0000808080808080808080808080808080854
:103CF0000808080808080808080808080808080844
:103D00000808080808080808080808080808080833
:103D10000808080808080808080808080808080823
:103D20000808080808080808080808080808080813
:103D30000808080808080808080808080808080803
:103D40000808080808080808080808080800010208
:103D500003040506070102032F0405062A070809C4
:063D60002D25003D2B00A3
:00000001FF
